{
  "_format": "hh-sol-artifact-1",
  "contractName": "BuzzShares",
  "sourceName": "contracts/BuzzShares.sol",
  "abi": [
    {
      "inputs": [],
      "stateMutability": "nonpayable",
      "type": "constructor"
    },
    {
      "inputs": [
        {
          "internalType": "address",
          "name": "owner",
          "type": "address"
        }
      ],
      "name": "OwnableInvalidOwner",
      "type": "error"
    },
    {
      "inputs": [
        {
          "internalType": "address",
          "name": "account",
          "type": "address"
        }
      ],
      "name": "OwnableUnauthorizedAccount",
      "type": "error"
    },
    {
      "anonymous": false,
      "inputs": [
        {
          "indexed": true,
          "internalType": "address",
          "name": "previousOwner",
          "type": "address"
        },
        {
          "indexed": true,
          "internalType": "address",
          "name": "newOwner",
          "type": "address"
        }
      ],
      "name": "OwnershipTransferred",
      "type": "event"
    },
    {
      "anonymous": false,
      "inputs": [
        {
          "indexed": false,
          "internalType": "address",
          "name": "trader",
          "type": "address"
        },
        {
          "indexed": false,
          "internalType": "address",
          "name": "subject",
          "type": "address"
        },
        {
          "indexed": false,
          "internalType": "bool",
          "name": "isBuy",
          "type": "bool"
        },
        {
          "indexed": false,
          "internalType": "uint256",
          "name": "shareAmount",
          "type": "uint256"
        },
        {
          "indexed": false,
          "internalType": "uint256",
          "name": "ethAmount",
          "type": "uint256"
        },
        {
          "indexed": false,
          "internalType": "uint256",
          "name": "protocolEthAmount",
          "type": "uint256"
        },
        {
          "indexed": false,
          "internalType": "uint256",
          "name": "subjectEthAmount",
          "type": "uint256"
        },
        {
          "indexed": false,
          "internalType": "uint256",
          "name": "supply",
          "type": "uint256"
        }
      ],
      "name": "Trade",
      "type": "event"
    },
    {
      "inputs": [
        {
          "internalType": "address",
          "name": "sharesSubject",
          "type": "address"
        },
        {
          "internalType": "uint256",
          "name": "amount",
          "type": "uint256"
        }
      ],
      "name": "buyShares",
      "outputs": [],
      "stateMutability": "payable",
      "type": "function"
    },
    {
      "inputs": [
        {
          "internalType": "address",
          "name": "sharesSubject",
          "type": "address"
        },
        {
          "internalType": "uint256",
          "name": "amount",
          "type": "uint256"
        }
      ],
      "name": "getBuyPrice",
      "outputs": [
        {
          "internalType": "uint256",
          "name": "",
          "type": "uint256"
        }
      ],
      "stateMutability": "view",
      "type": "function"
    },
    {
      "inputs": [
        {
          "internalType": "address",
          "name": "sharesSubject",
          "type": "address"
        },
        {
          "internalType": "uint256",
          "name": "amount",
          "type": "uint256"
        }
      ],
      "name": "getBuyPriceAfterFee",
      "outputs": [
        {
          "internalType": "uint256",
          "name": "",
          "type": "uint256"
        }
      ],
      "stateMutability": "view",
      "type": "function"
    },
    {
      "inputs": [
        {
          "internalType": "uint256",
          "name": "supply",
          "type": "uint256"
        },
        {
          "internalType": "uint256",
          "name": "amount",
          "type": "uint256"
        }
      ],
      "name": "getPrice",
      "outputs": [
        {
          "internalType": "uint256",
          "name": "",
          "type": "uint256"
        }
      ],
      "stateMutability": "pure",
      "type": "function"
    },
    {
      "inputs": [
        {
          "internalType": "address",
          "name": "sharesSubject",
          "type": "address"
        },
        {
          "internalType": "uint256",
          "name": "amount",
          "type": "uint256"
        }
      ],
      "name": "getSellPrice",
      "outputs": [
        {
          "internalType": "uint256",
          "name": "",
          "type": "uint256"
        }
      ],
      "stateMutability": "view",
      "type": "function"
    },
    {
      "inputs": [
        {
          "internalType": "address",
          "name": "sharesSubject",
          "type": "address"
        },
        {
          "internalType": "uint256",
          "name": "amount",
          "type": "uint256"
        }
      ],
      "name": "getSellPriceAfterFee",
      "outputs": [
        {
          "internalType": "uint256",
          "name": "",
          "type": "uint256"
        }
      ],
      "stateMutability": "view",
      "type": "function"
    },
    {
      "inputs": [],
      "name": "king",
      "outputs": [
        {
          "internalType": "address",
          "name": "",
          "type": "address"
        }
      ],
      "stateMutability": "view",
      "type": "function"
    },
    {
      "inputs": [],
      "name": "owner",
      "outputs": [
        {
          "internalType": "address",
          "name": "",
          "type": "address"
        }
      ],
      "stateMutability": "view",
      "type": "function"
    },
    {
      "inputs": [],
      "name": "protocolFeeDestination",
      "outputs": [
        {
          "internalType": "address",
          "name": "",
          "type": "address"
        }
      ],
      "stateMutability": "view",
      "type": "function"
    },
    {
      "inputs": [],
      "name": "protocolFeePercent",
      "outputs": [
        {
          "internalType": "uint256",
          "name": "",
          "type": "uint256"
        }
      ],
      "stateMutability": "view",
      "type": "function"
    },
    {
      "inputs": [],
      "name": "renounceOwnership",
      "outputs": [],
      "stateMutability": "nonpayable",
      "type": "function"
    },
    {
      "inputs": [
        {
          "internalType": "address",
          "name": "sharesSubject",
          "type": "address"
        },
        {
          "internalType": "uint256",
          "name": "amount",
          "type": "uint256"
        }
      ],
      "name": "sellShares",
      "outputs": [],
      "stateMutability": "payable",
      "type": "function"
    },
    {
      "inputs": [
        {
          "internalType": "address",
          "name": "_feeDestination",
          "type": "address"
        }
      ],
      "name": "setFeeDestination",
      "outputs": [],
      "stateMutability": "nonpayable",
      "type": "function"
    },
    {
      "inputs": [
        {
          "internalType": "address",
          "name": "_king",
          "type": "address"
        }
      ],
      "name": "setKing",
      "outputs": [],
      "stateMutability": "nonpayable",
      "type": "function"
    },
    {
      "inputs": [
        {
          "internalType": "uint256",
          "name": "_feePercent",
          "type": "uint256"
        }
      ],
      "name": "setProtocolFeePercent",
      "outputs": [],
      "stateMutability": "nonpayable",
      "type": "function"
    },
    {
      "inputs": [
        {
          "internalType": "uint256",
          "name": "_feePercent",
          "type": "uint256"
        }
      ],
      "name": "setSubjectFeePercent",
      "outputs": [],
      "stateMutability": "nonpayable",
      "type": "function"
    },
    {
      "inputs": [
        {
          "internalType": "address",
          "name": "",
          "type": "address"
        },
        {
          "internalType": "address",
          "name": "",
          "type": "address"
        }
      ],
      "name": "sharesBalance",
      "outputs": [
        {
          "internalType": "uint256",
          "name": "",
          "type": "uint256"
        }
      ],
      "stateMutability": "view",
      "type": "function"
    },
    {
      "inputs": [
        {
          "internalType": "address",
          "name": "",
          "type": "address"
        }
      ],
      "name": "sharesSupply",
      "outputs": [
        {
          "internalType": "uint256",
          "name": "",
          "type": "uint256"
        }
      ],
      "stateMutability": "view",
      "type": "function"
    },
    {
      "inputs": [],
      "name": "subjectFeePercent",
      "outputs": [
        {
          "internalType": "uint256",
          "name": "",
          "type": "uint256"
        }
      ],
      "stateMutability": "view",
      "type": "function"
    },
    {
      "inputs": [
        {
          "internalType": "address",
          "name": "shareSubject",
          "type": "address"
        },
        {
          "internalType": "address",
          "name": "caller",
          "type": "address"
        },
        {
          "internalType": "address",
          "name": "buzzMarket",
          "type": "address"
        },
        {
          "internalType": "uint256",
          "name": "amount",
          "type": "uint256"
        }
      ],
      "name": "transerFromContract",
      "outputs": [],
      "stateMutability": "nonpayable",
      "type": "function"
    },
    {
      "inputs": [
        {
          "internalType": "address",
          "name": "newOwner",
          "type": "address"
        }
      ],
      "name": "transferOwnership",
      "outputs": [],
      "stateMutability": "nonpayable",
      "type": "function"
    },
    {
      "inputs": [
        {
          "internalType": "address",
          "name": "shareSubject",
          "type": "address"
        },
        {
          "internalType": "address",
          "name": "caller",
          "type": "address"
        },
        {
          "internalType": "address",
          "name": "buzzMarket",
          "type": "address"
        },
        {
          "internalType": "uint256",
          "name": "amount",
          "type": "uint256"
        }
      ],
      "name": "transferToContract",
      "outputs": [],
      "stateMutability": "nonpayable",
      "type": "function"
    }
  ],
  "bytecode": "0x608060405234801561001057600080fd5b50338061003c576000604051631e4fbdf760e01b815260040161003391906100bd565b60405180910390fd5b6100458161004b565b506100cb565b600080546001600160a01b038381166001600160a01b0319831681178455604051919092169283917f8be0079c531659141344cd1fd0a4f28419497f9722a3daafe3b4186f6b6457e09190a35050565b60006001600160a01b0382165b92915050565b6100b78161009b565b82525050565b602081016100a882846100ae565b6114c480620000db6000396000f3fe6080604052600436106101755760003560e01c80638da5cb5b116100cb578063b51d05341161007f578063f2fde38b11610059578063f2fde38b146103dc578063f9931be0146103fc578063fbe532341461042957600080fd5b8063b51d053414610393578063cc181ca8146103a6578063d6e6eb9f146103c657600080fd5b80639ae71781116100b05780639ae7178114610333578063a498342114610353578063afc447771461037357600080fd5b80638da5cb5b146102f55780638fc4c29a1461031357600080fd5b80634ce7957c1161012d5780636945b123116101075780636945b123146102ad578063715018a6146102c057806382e8297a146102d557600080fd5b80634ce7957c1461023e5780635a8a764e1461026b5780635cf4ee911461028d57600080fd5b80632267a89c1161015e5780632267a89c146101e857806324dc441d146102085780634635256e1461021e57600080fd5b8063020235ff1461017a5780630f026f6d146101c8575b600080fd5b34801561018657600080fd5b506101b2610195366004610fd6565b600560209081526000928352604080842090915290825290205481565b6040516101bf919061101b565b60405180910390f35b3480156101d457600080fd5b506101b26101e336600461103a565b610449565b3480156101f457600080fd5b506101b261020336600461103a565b6104c3565b34801561021457600080fd5b506101b260045481565b34801561022a57600080fd5b506101b261023936600461103a565b610531565b34801561024a57600080fd5b5060015461025e906001600160a01b031681565b6040516101bf9190611076565b34801561027757600080fd5b5061028b610286366004611084565b61055b565b005b34801561029957600080fd5b506101b26102a83660046110ad565b610568565b61028b6102bb36600461103a565b61067f565b3480156102cc57600080fd5b5061028b610917565b3480156102e157600080fd5b5061028b6102f03660046110cf565b61092b565b34801561030157600080fd5b506000546001600160a01b031661025e565b34801561031f57600080fd5b5061028b61032e366004611133565b6109f5565b34801561033f57600080fd5b506101b261034e36600461103a565b610a37565b34801561035f57600080fd5b5061028b61036e366004611084565b610a65565b34801561037f57600080fd5b5061028b61038e3660046110cf565b610a72565b61028b6103a136600461103a565b610b4f565b3480156103b257600080fd5b5060025461025e906001600160a01b031681565b3480156103d257600080fd5b506101b260035481565b3480156103e857600080fd5b5061028b6103f7366004611133565b610e5f565b34801561040857600080fd5b506101b2610417366004611133565b60066020526000908152604090205481565b34801561043557600080fd5b5061028b610444366004611133565b610eb6565b6000806104568484610531565b90506000670de0b6b3a7640000600354836104719190611183565b61047b91906111d1565b90506000670de0b6b3a7640000600454846104969190611183565b6104a091906111d1565b9050806104ad83856111e5565b6104b791906111e5565b93505050505b92915050565b6000806104d08484610a37565b90506000670de0b6b3a7640000600354836104eb9190611183565b6104f591906111d1565b90506000670de0b6b3a7640000600454846105109190611183565b61051a91906111d1565b90508061052783856111f8565b6104b791906111f8565b6001600160a01b0382166000908152600660205260408120546105549083610568565b9392505050565b610563610ef8565b600455565b60008083156105c357600661057e6001866111f8565b610589906002611183565b6105949060016111e5565b856105a06001826111f8565b6105aa9190611183565b6105b49190611183565b6105be91906111d1565b6105c6565b60005b90506000841580156105d85750836001145b61064d576006846105ea6001886111f8565b6105f491906111e5565b6105ff906002611183565b61060a9060016111e5565b61061486886111e5565b8661062060018a6111f8565b61062a91906111e5565b6106349190611183565b61063e9190611183565b61064891906111d1565b610650565b60005b9050600061065e83836111f8565b9050613e8061067582670de0b6b3a7640000611183565b6104b791906111d1565b6001600160a01b038216600090815260066020526040902054801515806106ae57506001600160a01b03831633145b6106d35760405162461bcd60e51b81526004016106ca9061120b565b60405180910390fd5b60006106df8284610568565b90506000670de0b6b3a7640000600354836106fa9190611183565b61070491906111d1565b90506000670de0b6b3a76400006004548461071f9190611183565b61072991906111d1565b90508061073683856111e5565b61074091906111e5565b34101561075f5760405162461bcd60e51b81526004016106ca906112a3565b6001600160a01b038616600090815260056020908152604080832033845290915290205461078e9086906111e5565b6001600160a01b03871660009081526005602090815260408083203384529091529020556107bc85856111e5565b6001600160a01b0387166000908152600660205260409020557f2c76e7a47fd53e2854856ac3f0a5f3ee40d15cfaa82266357ea9779c486ab9c33387600188878787610808848d6111e5565b60405161081c9897969594939291906112bb565b60405180910390a16001546040516000916001600160a01b031690849061084290611332565b60006040518083038185875af1925050503d806000811461087f576040519150601f19603f3d011682016040523d82523d6000602084013e610884565b606091505b505090506000876001600160a01b0316836040516108a190611332565b60006040518083038185875af1925050503d80600081146108de576040519150601f19603f3d011682016040523d82523d6000602084013e6108e3565b606091505b505090508180156108f15750805b61090d5760405162461bcd60e51b81526004016106ca9061136e565b5050505050505050565b61091f610ef8565b6109296000610f3e565b565b6002546001600160a01b031633146109555760405162461bcd60e51b81526004016106ca906113b2565b6001600160a01b038085166000908152600560209081526040808320938716835292905220546109869082906111e5565b6001600160a01b038581166000908152600560209081526040808320888516845290915280822093909355908416815220546109c39082906111f8565b6001600160a01b0394851660009081526005602090815260408083209690971682529490945293909220929092555050565b6109fd610ef8565b600280547fffffffffffffffffffffffff0000000000000000000000000000000000000000166001600160a01b0392909216919091179055565b6001600160a01b03821660009081526006602052604081205461055490610a5f9084906111f8565b83610568565b610a6d610ef8565b600355565b6002546001600160a01b03163314610a9c5760405162461bcd60e51b81526004016106ca906113b2565b6001600160a01b03808516600090815260056020908152604080832093871683529290522054811115610ae15760405162461bcd60e51b81526004016106ca906113f6565b6001600160a01b03808516600090815260056020908152604080832093871683529290522054610b129082906111f8565b6001600160a01b038581166000908152600560209081526040808320888516845290915280822093909355908416815220546109c39082906111e5565b6001600160a01b038216600090815260066020526040902054818111610b875760405162461bcd60e51b81526004016106ca9061143a565b6000610b9c610b9684846111f8565b84610568565b90506000670de0b6b3a764000060035483610bb79190611183565b610bc191906111d1565b90506000670de0b6b3a764000060045484610bdc9190611183565b610be691906111d1565b6001600160a01b0387166000908152600560209081526040808320338452909152902054909150851115610c2c5760405162461bcd60e51b81526004016106ca9061147e565b6001600160a01b0386166000908152600560209081526040808320338452909152902054610c5b9086906111f8565b6001600160a01b0387166000908152600560209081526040808320338452909152902055610c8985856111f8565b6001600160a01b0387166000908152600660205260408120919091557f2c76e7a47fd53e2854856ac3f0a5f3ee40d15cfaa82266357ea9779c486ab9c3903390889088878787610cd9848d6111f8565b604051610ced9897969594939291906112bb565b60405180910390a160003382610d0385876111f8565b610d0d91906111f8565b604051610d1990611332565b60006040518083038185875af1925050503d8060008114610d56576040519150601f19603f3d011682016040523d82523d6000602084013e610d5b565b606091505b50506001546040519192506000916001600160a01b03909116908590610d8090611332565b60006040518083038185875af1925050503d8060008114610dbd576040519150601f19603f3d011682016040523d82523d6000602084013e610dc2565b606091505b505090506000886001600160a01b031684604051610ddf90611332565b60006040518083038185875af1925050503d8060008114610e1c576040519150601f19603f3d011682016040523d82523d6000602084013e610e21565b606091505b50509050828015610e2f5750815b8015610e385750805b610e545760405162461bcd60e51b81526004016106ca9061136e565b505050505050505050565b610e67610ef8565b6001600160a01b038116610eaa5760006040517f1e4fbdf70000000000000000000000000000000000000000000000000000000081526004016106ca9190611076565b610eb381610f3e565b50565b610ebe610ef8565b600180547fffffffffffffffffffffffff0000000000000000000000000000000000000000166001600160a01b0392909216919091179055565b6000546001600160a01b0316331461092957336040517f118cdaa70000000000000000000000000000000000000000000000000000000081526004016106ca9190611076565b600080546001600160a01b038381167fffffffffffffffffffffffff0000000000000000000000000000000000000000831681178455604051919092169283917f8be0079c531659141344cd1fd0a4f28419497f9722a3daafe3b4186f6b6457e09190a35050565b60006001600160a01b0382166104bd565b610fc081610fa6565b8114610eb357600080fd5b80356104bd81610fb7565b60008060408385031215610fec57610fec600080fd5b6000610ff88585610fcb565b925050602061100985828601610fcb565b9150509250929050565b805b82525050565b602081016104bd8284611013565b80610fc0565b80356104bd81611029565b6000806040838503121561105057611050600080fd5b600061105c8585610fcb565b92505060206110098582860161102f565b61101581610fa6565b602081016104bd828461106d565b60006020828403121561109957611099600080fd5b60006110a5848461102f565b949350505050565b600080604083850312156110c3576110c3600080fd5b600061105c858561102f565b600080600080608085870312156110e8576110e8600080fd5b60006110f48787610fcb565b945050602061110587828801610fcb565b935050604061111687828801610fcb565b92505060606111278782880161102f565b91505092959194509250565b60006020828403121561114857611148600080fd5b60006110a58484610fcb565b7f4e487b7100000000000000000000000000000000000000000000000000000000600052601160045260246000fd5b81810280821583820485141761119b5761119b611154565b5092915050565b7f4e487b7100000000000000000000000000000000000000000000000000000000600052601260045260246000fd5b6000826111e0576111e06111a2565b500490565b808201808211156104bd576104bd611154565b818103818111156104bd576104bd611154565b602080825281016104bd81603081527f4f6e6c79207468652073686172657327207375626a6563742063616e2062757960208201527f2074686520666972737420736861726500000000000000000000000000000000604082015260600190565b601481526000602082017f496e73756666696369656e74207061796d656e74000000000000000000000000815291505b5060200190565b602080825281016104bd8161126c565b801515611015565b61010081016112ca828b61106d565b6112d7602083018a61106d565b6112e460408301896112b3565b6112f16060830188611013565b6112fe6080830187611013565b61130b60a0830186611013565b61131860c0830185611013565b61132560e0830184611013565b9998505050505050505050565b6000816104bd565b601481526000602082017f556e61626c6520746f2073656e642066756e64730000000000000000000000008152915061129c565b602080825281016104bd8161133a565b600c81526000602082017f6f6e6c7920666163746f727900000000000000000000000000000000000000008152915061129c565b602080825281016104bd8161137e565b601181526000602082017f4e6f7420656e6f756768205368617265730000000000000000000000000000008152915061129c565b602080825281016104bd816113c2565b601a81526000602082017f43616e6e6f742073656c6c20746865206c6173742073686172650000000000008152915061129c565b602080825281016104bd81611406565b601381526000602082017f496e73756666696369656e7420736861726573000000000000000000000000008152915061129c565b602080825281016104bd8161144a56fea2646970667358221220e84e51a123ee65876dc41d03d0b835557f927b864074101f758d816bde2c9b2f64736f6c63430008140033",
  "linkReferences": {},
  "deployedLinkReferences": {}
}