{
  "_format": "hh-sol-artifact-1",
  "contractName": "BuzzKing",
  "sourceName": "contracts/BuzzKing.sol",
  "abi": [
    {
      "inputs": [
        {
          "internalType": "address",
          "name": "_buzzSharesAddress",
          "type": "address"
        }
      ],
      "stateMutability": "nonpayable",
      "type": "constructor"
    },
    {
      "anonymous": false,
      "inputs": [
        {
          "indexed": false,
          "internalType": "address",
          "name": "marketAddress",
          "type": "address"
        },
        {
          "indexed": false,
          "internalType": "address",
          "name": "subject",
          "type": "address"
        },
        {
          "indexed": false,
          "internalType": "string",
          "name": "marketType",
          "type": "string"
        }
      ],
      "name": "NewMarket",
      "type": "event"
    },
    {
      "anonymous": false,
      "inputs": [
        {
          "indexed": false,
          "internalType": "address",
          "name": "marketAddress",
          "type": "address"
        },
        {
          "indexed": false,
          "internalType": "address",
          "name": "subject",
          "type": "address"
        },
        {
          "indexed": false,
          "internalType": "address",
          "name": "user",
          "type": "address"
        },
        {
          "indexed": false,
          "internalType": "uint256",
          "name": "shareAmount",
          "type": "uint256"
        },
        {
          "indexed": false,
          "internalType": "uint256",
          "name": "yesOrNoAmount",
          "type": "uint256"
        },
        {
          "indexed": false,
          "internalType": "bool",
          "name": "yesOrNo",
          "type": "bool"
        }
      ],
      "name": "NewMint",
      "type": "event"
    },
    {
      "anonymous": false,
      "inputs": [
        {
          "indexed": false,
          "internalType": "address",
          "name": "marketAddress",
          "type": "address"
        },
        {
          "indexed": false,
          "internalType": "address",
          "name": "subject",
          "type": "address"
        },
        {
          "indexed": false,
          "internalType": "address",
          "name": "user",
          "type": "address"
        },
        {
          "indexed": false,
          "internalType": "uint256",
          "name": "shareAmount",
          "type": "uint256"
        },
        {
          "indexed": false,
          "internalType": "uint256",
          "name": "yesAmount",
          "type": "uint256"
        },
        {
          "indexed": false,
          "internalType": "uint256",
          "name": "noAmount",
          "type": "uint256"
        }
      ],
      "name": "RedeemAfter",
      "type": "event"
    },
    {
      "anonymous": false,
      "inputs": [
        {
          "indexed": false,
          "internalType": "address",
          "name": "marketAddress",
          "type": "address"
        },
        {
          "indexed": false,
          "internalType": "address",
          "name": "subject",
          "type": "address"
        },
        {
          "indexed": false,
          "internalType": "address",
          "name": "user",
          "type": "address"
        },
        {
          "indexed": false,
          "internalType": "uint256",
          "name": "shareAmount",
          "type": "uint256"
        },
        {
          "indexed": false,
          "internalType": "uint256",
          "name": "yesOrNoAmount",
          "type": "uint256"
        },
        {
          "indexed": false,
          "internalType": "bool",
          "name": "yesOrNo",
          "type": "bool"
        }
      ],
      "name": "RedeemDuring",
      "type": "event"
    },
    {
      "inputs": [
        {
          "internalType": "address",
          "name": "",
          "type": "address"
        },
        {
          "internalType": "address",
          "name": "",
          "type": "address"
        }
      ],
      "name": "allMarkets",
      "outputs": [
        {
          "internalType": "string",
          "name": "",
          "type": "string"
        }
      ],
      "stateMutability": "view",
      "type": "function"
    },
    {
      "inputs": [],
      "name": "buzzSharesAddress",
      "outputs": [
        {
          "internalType": "address",
          "name": "",
          "type": "address"
        }
      ],
      "stateMutability": "view",
      "type": "function"
    },
    {
      "inputs": [],
      "name": "createBinary",
      "outputs": [
        {
          "internalType": "address",
          "name": "marketAddress",
          "type": "address"
        }
      ],
      "stateMutability": "nonpayable",
      "type": "function"
    },
    {
      "inputs": [
        {
          "internalType": "uint256",
          "name": "amountShares",
          "type": "uint256"
        },
        {
          "internalType": "address",
          "name": "subject",
          "type": "address"
        },
        {
          "internalType": "address",
          "name": "marketAddress",
          "type": "address"
        },
        {
          "internalType": "bool",
          "name": "yesOrNo",
          "type": "bool"
        }
      ],
      "name": "mintBinaryposition",
      "outputs": [],
      "stateMutability": "nonpayable",
      "type": "function"
    },
    {
      "inputs": [],
      "name": "parameters",
      "outputs": [
        {
          "internalType": "address",
          "name": "creator",
          "type": "address"
        },
        {
          "internalType": "address",
          "name": "positionManager",
          "type": "address"
        }
      ],
      "stateMutability": "view",
      "type": "function"
    },
    {
      "inputs": [
        {
          "internalType": "address",
          "name": "subject",
          "type": "address"
        },
        {
          "internalType": "address",
          "name": "marketAddress",
          "type": "address"
        }
      ],
      "name": "redeemBinaryAfter",
      "outputs": [],
      "stateMutability": "nonpayable",
      "type": "function"
    },
    {
      "inputs": [
        {
          "internalType": "address",
          "name": "subject",
          "type": "address"
        },
        {
          "internalType": "address",
          "name": "marketAddress",
          "type": "address"
        },
        {
          "internalType": "uint256",
          "name": "yesOrNoAmount",
          "type": "uint256"
        },
        {
          "internalType": "bool",
          "name": "yesOrNo",
          "type": "bool"
        }
      ],
      "name": "redeemBinaryDuring",
      "outputs": [],
      "stateMutability": "nonpayable",
      "type": "function"
    }
  ],
  "bytecode": "0x60a06040523480156200001157600080fd5b50604051620028d4380380620028d4833981016040819052620000349162000080565b6001600160a01b0316608052620000ad565b60006001600160a01b0382165b92915050565b620000648162000046565b81146200007057600080fd5b50565b8051620000538162000059565b600060208284031215620000975762000097600080fd5b6000620000a5848462000073565b949350505050565b6080516127f7620000dd600039600081816092015281816104830152818161077a0152610aa801526127f76000f3fe60806040523480156200001157600080fd5b5060043610620000875760003560e01c8063a30bce161162000062578063a30bce16146200010e578063b77f1aa01462000127578063d80d0bce146200014d578063fd5b7ef8146200016457600080fd5b80634dcbbf49146200008c57806366b5354114620000cc5780638903573014620000d6575b600080fd5b620000b47f000000000000000000000000000000000000000000000000000000000000000081565b604051620000c3919062000c83565b60405180910390f35b620000b46200017b565b600054600154620000fe9173ffffffffffffffffffffffffffffffffffffffff908116911682565b604051620000c392919062000c93565b620001256200011f36600462000d0a565b6200023b565b005b6200013e6200013836600462000d78565b6200053f565b604051620000c3919062000e34565b620001256200015e36600462000e47565b620005ec565b620001256200017536600462000d78565b620008c9565b600062000189333062000b76565b604080518082018252600681527f62696e61727900000000000000000000000000000000000000000000000000006020808301919091523360009081526002825283812073ffffffffffffffffffffffffffffffffffffffff8616825290915291909120919250620001fc908262000fd6565b507ff3d87aad1a20932221ed00731086f6c19e6ace115594a644ca1d6203f016ed52813360405162000230929190620010fc565b60405180910390a190565b73ffffffffffffffffffffffffffffffffffffffff8085166000908152600260209081526040808320938716835292905290812080546200027c9062000ef4565b80601f0160208091040260200160405190810160405280929190818152602001828054620002aa9062000ef4565b8015620002fb5780601f10620002cf57610100808354040283529160200191620002fb565b820191906000526020600020905b815481529060010190602001808311620002dd57829003601f168201915b50505050509050604051602001620003139062001136565b60405160208183030381529060405280519060200120816040516020016200033c91906200118a565b604051602081830303815290604052805190602001201462000395576040517f08c379a00000000000000000000000000000000000000000000000000000000081526004016200038c90620011cd565b60405180910390fd5b6040517f291c8be100000000000000000000000000000000000000000000000000000000815260009073ffffffffffffffffffffffffffffffffffffffff86169063291c8be190620003f090339088908890600401620011ef565b6020604051808303816000875af115801562000410573d6000803e3d6000fd5b505050506040513d601f19601f820116820180604052508101906200043691906200122a565b620004439060026200127e565b6040517f82e8297a00000000000000000000000000000000000000000000000000000000815290915073ffffffffffffffffffffffffffffffffffffffff7f000000000000000000000000000000000000000000000000000000000000000016906382e8297a90620004c090899033908a908790600401620012a0565b600060405180830381600087803b158015620004db57600080fd5b505af1158015620004f0573d6000803e3d6000fd5b505050507f1454cc1790f6a77822281fe74a5ae8b9c5014c9cf8f6ad707f457823d7430ae68587338488886040516200052f96959493929190620012e6565b60405180910390a1505050505050565b600260209081526000928352604080842090915290825290208054620005659062000ef4565b80601f0160208091040260200160405190810160405280929190818152602001828054620005939062000ef4565b8015620005e45780601f10620005b857610100808354040283529160200191620005e4565b820191906000526020600020905b815481529060010190602001808311620005c657829003601f168201915b505050505081565b73ffffffffffffffffffffffffffffffffffffffff8084166000908152600260209081526040808320938616835292905290812080546200062d9062000ef4565b80601f01602080910402602001604051908101604052809291908181526020018280546200065b9062000ef4565b8015620006ac5780601f106200068057610100808354040283529160200191620006ac565b820191906000526020600020905b8154815290600101906020018083116200068e57829003601f168201915b50505050509050604051602001620006c49062001136565b6040516020818303038152906040528051906020012081604051602001620006ed91906200118a565b60405160208183030381529060405280519060200120146200073d576040517f08c379a00000000000000000000000000000000000000000000000000000000081526004016200038c90620011cd565b6040517fafc4477700000000000000000000000000000000000000000000000000000000815273ffffffffffffffffffffffffffffffffffffffff7f0000000000000000000000000000000000000000000000000000000000000000169063afc4477790620007b7908790339088908b90600401620012a0565b600060405180830381600087803b158015620007d257600080fd5b505af1158015620007e7573d6000803e3d6000fd5b50506040517fb335e8fb0000000000000000000000000000000000000000000000000000000081526000925073ffffffffffffffffffffffffffffffffffffffff8616915063b335e8fb90620008469033908a908890600401620011ef565b6020604051808303816000875af115801562000866573d6000803e3d6000fd5b505050506040513d601f19601f820116820180604052508101906200088c91906200122a565b90507f79786f58c331d18f28f23841cce2463fd40cee4565a0a7bab642c072fba569328486338985886040516200052f96959493929190620012e6565b73ffffffffffffffffffffffffffffffffffffffff8083166000908152600260209081526040808320938516835292905290812080546200090a9062000ef4565b80601f0160208091040260200160405190810160405280929190818152602001828054620009389062000ef4565b8015620009895780601f106200095d5761010080835404028352916020019162000989565b820191906000526020600020905b8154815290600101906020018083116200096b57829003601f168201915b50505050509050604051602001620009a19062001136565b6040516020818303038152906040528051906020012081604051602001620009ca91906200118a565b604051602081830303815290604052805190602001201462000a1a576040517f08c379a00000000000000000000000000000000000000000000000000000000081526004016200038c90620011cd565b60008060008473ffffffffffffffffffffffffffffffffffffffff166326e113b4336040518263ffffffff1660e01b815260040162000a5a919062000c83565b6060604051808303816000875af115801562000a7a573d6000803e3d6000fd5b505050506040513d601f19601f8201168201806040525081019062000aa091906200134c565b9250925092507f000000000000000000000000000000000000000000000000000000000000000073ffffffffffffffffffffffffffffffffffffffff166382e8297a873388876040518563ffffffff1660e01b815260040162000b079493929190620012a0565b600060405180830381600087803b15801562000b2257600080fd5b505af115801562000b37573d6000803e3d6000fd5b505050507f14c3ed30d555cfaed9b2287a98287c5da07b08de6d17728c9e6a90921de5d0b78587338686866040516200052f96959493929190620013a4565b60408051808201825273ffffffffffffffffffffffffffffffffffffffff8085168083529084166020909201829052600080547fffffffffffffffffffffffff00000000000000000000000000000000000000009081169092178155600180549092169092179055905162000beb9062000c44565b604051809103906000f08015801562000c08573d6000803e3d6000fd5b50600080547fffffffffffffffffffffffff00000000000000000000000000000000000000009081169091556001805490911690559392505050565b6113c2806200140083390190565b600073ffffffffffffffffffffffffffffffffffffffff82165b92915050565b62000c7d8162000c52565b82525050565b6020810162000c6c828462000c72565b6040810162000ca3828562000c72565b62000cb2602083018462000c72565b9392505050565b62000cc48162000c52565b811462000cd057600080fd5b50565b803562000c6c8162000cb9565b8062000cc4565b803562000c6c8162000ce0565b80151562000cc4565b803562000c6c8162000cf4565b6000806000806080858703121562000d255762000d25600080fd5b600062000d33878762000cd3565b945050602062000d468782880162000cd3565b935050604062000d598782880162000ce7565b925050606062000d6c8782880162000cfd565b91505092959194509250565b6000806040838503121562000d905762000d90600080fd5b600062000d9e858562000cd3565b925050602062000db18582860162000cd3565b9150509250929050565b60005b8381101562000dd857818101518382015260200162000dbe565b50506000910152565b600062000dec825190565b80845260208401935062000e0581856020860162000dbb565b601f017fffffffffffffffffffffffffffffffffffffffffffffffffffffffffffffffe0169290920192915050565b6020808252810162000cb2818462000de1565b6000806000806080858703121562000e625762000e62600080fd5b600062000e70878762000ce7565b945050602062000e838782880162000cd3565b935050604062000d598782880162000cd3565b7f4e487b7100000000000000000000000000000000000000000000000000000000600052604160045260246000fd5b7f4e487b7100000000000000000000000000000000000000000000000000000000600052602260045260246000fd5b60028104600182168062000f0957607f821691505b60208210810362000f1e5762000f1e62000ec5565b50919050565b600062000c6c62000f328381565b90565b62000f408362000f24565b815460001960089490940293841b1916921b91909117905550565b600062000f6a81848462000f35565b505050565b8181101562000f8e5762000f8560008262000f5b565b60010162000f6f565b5050565b601f82111562000f6a576000818152602090206020601f8501048101602085101562000fbb5750805b62000fcf6020601f86010483018262000f6f565b5050505050565b815167ffffffffffffffff81111562000ff35762000ff362000e96565b62000fff825462000ef4565b6200100c82828562000f92565b6020601f8311600181146200104357600084156200102a5750858201515b600019600886021c1981166002860217865550620010bd565b6000858152602081207fffffffffffffffffffffffffffffffffffffffffffffffffffffffffffffffe08616915b8281101562001093578885015182556020948501946001909201910162001071565b86831015620010b05784890151600019601f89166008021c191682555b6001600288020188555050505b505050505050565b600681526000602082017f62696e6172790000000000000000000000000000000000000000000000000000815291505b5060200190565b606081016200110c828562000c72565b6200111b602083018462000c72565b81810360408301526200112e81620010c5565b949350505050565b7f62696e6172790000000000000000000000000000000000000000000000000000815260006006820162000c6c565b600062001170825190565b6200118081856020860162000dbb565b9290920192915050565b600062000cb2828462001165565b601381526000602082017f4e6f7420612042696e617279204d61726b65740000000000000000000000000081529150620010f5565b6020808252810162000c6c8162001198565b8062000c7d565b80151562000c7d565b60608101620011ff828662000c72565b6200120e6020830185620011df565b6200112e6040830184620011e6565b805162000c6c8162000ce0565b600060208284031215620012415762001241600080fd5b60006200112e84846200121d565b7f4e487b7100000000000000000000000000000000000000000000000000000000600052601160045260246000fd5b8181028082158382048514176200129957620012996200124f565b5092915050565b60808101620012b0828762000c72565b620012bf602083018662000c72565b620012ce604083018562000c72565b620012dd6060830184620011df565b95945050505050565b60c08101620012f6828962000c72565b62001305602083018862000c72565b62001314604083018762000c72565b620013236060830186620011df565b620013326080830185620011df565b6200134160a0830184620011e6565b979650505050505050565b600080600060608486031215620013665762001366600080fd5b60006200137486866200121d565b935050602062001387868287016200121d565b92505060406200139a868287016200121d565b9150509250925092565b60c08101620013b4828962000c72565b620013c3602083018862000c72565b620013d2604083018762000c72565b620013e16060830186620011df565b620013f06080830185620011df565b6200134160a0830184620011df56fe610100604052670de0b6b3a764000060805269d3c21bcecceda100000060a0523480156200002c57600080fd5b50336001600160a01b031663890357306040518163ffffffff1660e01b81526004016040805180830381865afa1580156200006b573d6000803e3d6000fd5b505050506040513d601f19601f8201168201806040525081019062000091919062000116565b6001600160a01b0390811660e0521660c052608051620000b4906103e86200016f565b600155608051620000c8906103e86200016f565b6002556003805461ffff1916905562000191565b60006001600160a01b0382165b92915050565b620000fa81620000dc565b81146200010657600080fd5b50565b8051620000e981620000ef565b600080604083850312156200012e576200012e600080fd5b60006200013c858562000109565b92505060206200014f8582860162000109565b9150509250929050565b634e487b7160e01b600052601160045260246000fd5b8181028082158382048514176200018a576200018a62000159565b5092915050565b60805160a05160c05160e0516111266200029c60003960008181610160015281816101c5015281816102d5015261083c01526000818160920152610750015260008181610111015281816103690152818161051a0152818161054e015281816107040152818161092d015281816109fe01528181610ab40152610b850152600081816101870152818161038a015281816103f701528181610470015281816104dd0152818161056f015281816105dc01528181610655015281816106c7015281816108ab015281816108d50152818161090c0152818161095d015281816109c101528181610a3201528181610a5c01528181610a9301528181610ae40152610b4801526111266000f3fe608060405234801561001057600080fd5b50600436106100885760003560e01c8063b2b649d01161005b578063b2b649d014610133578063b335e8fb14610148578063cc181ca81461015b578063ec342ad01461018257600080fd5b806302d05d3f1461008d57806326e113b4146100ca578063291c8be1146100ec578063a932492f1461010c575b600080fd5b6100b47f000000000000000000000000000000000000000000000000000000000000000081565b6040516100c19190610c56565b60405180910390f35b6100dd6100d8366004610c86565b6101a9565b6040516100c193929190610cb5565b6100ff6100fa366004610d01565b6102bb565b6040516100c19190610d51565b6100ff7f000000000000000000000000000000000000000000000000000000000000000081565b610146610141366004610d5f565b610738565b005b6100ff610156366004610d01565b610822565b6100b47f000000000000000000000000000000000000000000000000000000000000000081565b6100ff7f000000000000000000000000000000000000000000000000000000000000000081565b600080803373ffffffffffffffffffffffffffffffffffffffff7f0000000000000000000000000000000000000000000000000000000000000000161461020b5760405162461bcd60e51b815260040161020290610db7565b60405180910390fd5b600354610100900460ff166102325760405162461bcd60e51b815260040161020290610e24565b73ffffffffffffffffffffffffffffffffffffffff84166000908152602081905260409020805415158061026a575060008160010154115b61027357600080fd5b60035460ff161561029b578054600182018054600080855590915590945084935091506102b3565b60018101805482546000808555909255945092508391505b509193909250565b60003373ffffffffffffffffffffffffffffffffffffffff7f000000000000000000000000000000000000000000000000000000000000000016146103125760405162461bcd60e51b815260040161020290610db7565b600354610100900460ff161561033a5760405162461bcd60e51b815260040161020290610e8e565b73ffffffffffffffffffffffffffffffffffffffff84166000908152602081905260409020821561054a5760007f00000000000000000000000000000000000000000000000000000000000000007f0000000000000000000000000000000000000000000000000000000000000000866002546103b79190610ecd565b6103c19190610ecd565b6002546001546103d19190610ecd565b6103db9190610eec565b6103e59190610eff565b6103f0906004610ecd565b600261041c7f000000000000000000000000000000000000000000000000000000000000000088610ecd565b60025460015461042c9190610eec565b6104369190610eec565b6104409190611020565b61044a9190610eff565b9050600061045782610bb5565b61046490620f4240610ecd565b905060006002826104957f00000000000000000000000000000000000000000000000000000000000000008a610ecd565b6002546001546104a59190610eec565b6104af9190610eec565b6104b99190610eff565b6104c39190611082565b84549095508591506104d6908290610eff565b84556105027f000000000000000000000000000000000000000000000000000000000000000088610ecd565b60025461050f9190610eff565b600281905561053e907f0000000000000000000000000000000000000000000000000000000000000000611082565b6001555061072f915050565b60007f00000000000000000000000000000000000000000000000000000000000000007f00000000000000000000000000000000000000000000000000000000000000008660015461059c9190610ecd565b6105a69190610ecd565b6002546001546105b69190610ecd565b6105c09190610eec565b6105ca9190610eff565b6105d5906004610ecd565b60026106017f000000000000000000000000000000000000000000000000000000000000000088610ecd565b6002546001546106119190610eec565b61061b9190610eec565b6106259190611020565b61062f9190610eff565b9050600061063c82610bb5565b61064990620f4240610ecd565b9050600060028261067a7f00000000000000000000000000000000000000000000000000000000000000008a610ecd565b60025460015461068a9190610eec565b6106949190610eec565b61069e9190610eff565b6106a89190611082565b90508094508084600101546106bd9190610eff565b60018501556106ec7f000000000000000000000000000000000000000000000000000000000000000088610ecd565b6001546106f99190610eff565b6001819055610728907f0000000000000000000000000000000000000000000000000000000000000000611082565b6002555050505b505b9392505050565b3373ffffffffffffffffffffffffffffffffffffffff7f0000000000000000000000000000000000000000000000000000000000000000161461078d5760405162461bcd60e51b8152600401610202906110ca565b600380546101007fffffffffffffffffffffffffffffffffffffffffffffffffffffffffffff00009091168315157fffffffffffffffffffffffffffffffffffffffffffffffffffffffffffff00ff161717908190556040517f190b4d6857dcc7a4dedcb9747400efc0aeadbee135915b7aa960d07a73e2caf5916108179160ff909116906110e2565b60405180910390a150565b60003373ffffffffffffffffffffffffffffffffffffffff7f000000000000000000000000000000000000000000000000000000000000000016146108795760405162461bcd60e51b815260040161020290610db7565b73ffffffffffffffffffffffffffffffffffffffff841660009081526020819052604090208215610a2b5760006108d07f000000000000000000000000000000000000000000000000000000000000000086610ecd565b6108fa7f000000000000000000000000000000000000000000000000000000000000000087610ecd565b6002546109079190610eec565b6109517f00000000000000000000000000000000000000000000000000000000000000007f0000000000000000000000000000000000000000000000000000000000000000610ecd565b61095b9190611082565b7f00000000000000000000000000000000000000000000000000000000000000006001546109899190610ecd565b6109939190610eff565b61099d9190610eec565b9050809250808260000160008282546109b69190610eec565b909155506109e690507f000000000000000000000000000000000000000000000000000000000000000086610ecd565b6002546109f39190610eec565b6002819055610a22907f0000000000000000000000000000000000000000000000000000000000000000611082565b6001555061072f565b6000610a577f000000000000000000000000000000000000000000000000000000000000000086610ecd565b610a817f000000000000000000000000000000000000000000000000000000000000000087610ecd565b600154610a8e9190610eec565b610ad87f00000000000000000000000000000000000000000000000000000000000000007f0000000000000000000000000000000000000000000000000000000000000000610ecd565b610ae29190611082565b7f0000000000000000000000000000000000000000000000000000000000000000600254610b109190610ecd565b610b1a9190610eff565b610b249190610eec565b905080925080826001016000828254610b3d9190610eec565b90915550610b6d90507f000000000000000000000000000000000000000000000000000000000000000086610ecd565b600154610b7a9190610eec565b6001819055610ba9907f0000000000000000000000000000000000000000000000000000000000000000611082565b60025550509392505050565b600081600003610bc757506000919050565b610bd664e8d4a5100083611082565b915060006002610be7846001610eec565b610bf19190611082565b9050825b80821015610731575080600281610c0c8187611082565b610c169190610eec565b610c209190611082565b9150610bf5565b600073ffffffffffffffffffffffffffffffffffffffff82165b92915050565b610c5081610c27565b82525050565b60208101610c418284610c47565b610c6d81610c27565b8114610c7857600080fd5b50565b8035610c4181610c64565b600060208284031215610c9b57610c9b600080fd5b6000610ca78484610c7b565b949350505050565b80610c50565b60608101610cc38286610caf565b610cd06020830185610caf565b610ca76040830184610caf565b80610c6d565b8035610c4181610cdd565b801515610c6d565b8035610c4181610cee565b600080600060608486031215610d1957610d19600080fd5b6000610d258686610c7b565b9350506020610d3686828701610ce3565b9250506040610d4786828701610cf6565b9150509250925092565b60208101610c418284610caf565b600060208284031215610d7457610d74600080fd5b6000610ca78484610cf6565b601581526000602082017f6f6e6c7920506f736974696f6e204d616e616765720000000000000000000000815291505b5060200190565b60208082528101610c4181610d80565b603681526000602082017f416e7377657220686173206e6f74206265656e207375626d69747465642e205081527f6c65617365207573652072656465656d447572696e6700000000000000000000602082015291505b5060400190565b60208082528101610c4181610dc7565b603181526000602082017f416e7377657220686173206265656e207375626d69747465642e20506c65617381527f65207573652072656465656d416674657200000000000000000000000000000060208201529150610e1d565b60208082528101610c4181610e34565b7f4e487b7100000000000000000000000000000000000000000000000000000000600052601160045260246000fd5b818102808215838204851417610ee557610ee5610e9e565b5092915050565b80820180821115610c4157610c41610e9e565b81810381811115610c4157610c41610e9e565b80825b6001851115610f5157808604811115610f3057610f30610e9e565b6001851615610f3e57908102905b8002610f4a8560011c90565b9450610f15565b94509492505050565b600082610f6957506001610731565b81610f7657506000610731565b8160018114610f8c5760028114610f9657610fc3565b6001915050610731565b60ff841115610fa757610fa7610e9e565b8360020a915084821115610fbd57610fbd610e9e565b50610731565b5060208310610133831016604e8410600b8410161715610ff6575081810a83811115610ff157610ff1610e9e565b610731565b6110038484846001610f12565b9250905081840481111561101957611019610e9e565b0292915050565b600060ff831692506107317fffffffffffffffffffffffffffffffffffffffffffffffffffffffffffffffff8484610f5a565b7f4e487b7100000000000000000000000000000000000000000000000000000000600052601260045260246000fd5b60008261109157611091611053565b500490565b600c81526000602082017f6f6e6c792043726561746f72000000000000000000000000000000000000000081529150610db0565b60208082528101610c4181611096565b801515610c50565b60208101610c4182846110da56fea2646970667358221220d3d3f56b9328843cb639a75305d3cf982d5ecacb3787bf0fa766c0f31f2c372a64736f6c63430008140033a26469706673582212204247149b682da163c5bce9f3174b60bc6336ad0f898aef73369ce9babf509c2364736f6c63430008140033",
  "linkReferences": {},
  "deployedLinkReferences": {}
}