{
  "_format": "hh-sol-artifact-1",
  "contractName": "Faucet",
  "sourceName": "contracts/Faucet.sol",
  "abi": [
    {
      "inputs": [],
      "stateMutability": "nonpayable",
      "type": "constructor"
    },
    {
      "inputs": [
        {
          "internalType": "address",
          "name": "owner",
          "type": "address"
        }
      ],
      "name": "OwnableInvalidOwner",
      "type": "error"
    },
    {
      "inputs": [
        {
          "internalType": "address",
          "name": "account",
          "type": "address"
        }
      ],
      "name": "OwnableUnauthorizedAccount",
      "type": "error"
    },
    {
      "anonymous": false,
      "inputs": [
        {
          "indexed": true,
          "internalType": "address",
          "name": "previousOwner",
          "type": "address"
        },
        {
          "indexed": true,
          "internalType": "address",
          "name": "newOwner",
          "type": "address"
        }
      ],
      "name": "OwnershipTransferred",
      "type": "event"
    },
    {
      "inputs": [],
      "name": "amountToDistribute",
      "outputs": [
        {
          "internalType": "uint256",
          "name": "",
          "type": "uint256"
        }
      ],
      "stateMutability": "view",
      "type": "function"
    },
    {
      "inputs": [],
      "name": "getBalance",
      "outputs": [
        {
          "internalType": "uint256",
          "name": "",
          "type": "uint256"
        }
      ],
      "stateMutability": "view",
      "type": "function"
    },
    {
      "inputs": [
        {
          "internalType": "address",
          "name": "",
          "type": "address"
        }
      ],
      "name": "onetimeClaim",
      "outputs": [
        {
          "internalType": "bool",
          "name": "",
          "type": "bool"
        }
      ],
      "stateMutability": "view",
      "type": "function"
    },
    {
      "inputs": [],
      "name": "owner",
      "outputs": [
        {
          "internalType": "address",
          "name": "",
          "type": "address"
        }
      ],
      "stateMutability": "view",
      "type": "function"
    },
    {
      "inputs": [],
      "name": "renounceOwnership",
      "outputs": [],
      "stateMutability": "nonpayable",
      "type": "function"
    },
    {
      "inputs": [
        {
          "internalType": "address",
          "name": "userWallet",
          "type": "address"
        }
      ],
      "name": "requestEth",
      "outputs": [],
      "stateMutability": "nonpayable",
      "type": "function"
    },
    {
      "inputs": [
        {
          "internalType": "address",
          "name": "newOwner",
          "type": "address"
        }
      ],
      "name": "transferOwnership",
      "outputs": [],
      "stateMutability": "nonpayable",
      "type": "function"
    },
    {
      "stateMutability": "payable",
      "type": "receive"
    }
  ],
  "bytecode": "0x608060405267016345785d8a000060015534801561001c57600080fd5b503380610048576000604051631e4fbdf760e01b815260040161003f91906100c9565b60405180910390fd5b61005181610057565b506100d7565b600080546001600160a01b038381166001600160a01b0319831681178455604051919092169283917f8be0079c531659141344cd1fd0a4f28419497f9722a3daafe3b4186f6b6457e09190a35050565b60006001600160a01b0382165b92915050565b6100c3816100a7565b82525050565b602081016100b482846100ba565b61061c806100e66000396000f3fe6080604052600436106100745760003560e01c8063715018a61161004e578063715018a6146101045780638da5cb5b14610119578063ed4460ef1461014c578063f2fde38b1461016257600080fd5b8063014f21441461008057806312065fe0146100c6578063345b30ec146100e257600080fd5b3661007b57005b600080fd5b34801561008c57600080fd5b506100b061009b3660046104a3565b60026020526000908152604090205460ff1681565b6040516100bd91906104d6565b60405180910390f35b3480156100d257600080fd5b50475b6040516100bd91906104ea565b3480156100ee57600080fd5b506101026100fd3660046104a3565b610182565b005b34801561011057600080fd5b50610102610324565b34801561012557600080fd5b5060005473ffffffffffffffffffffffffffffffffffffffff166040516100bd9190610501565b34801561015857600080fd5b506100d560015481565b34801561016e57600080fd5b5061010261017d3660046104a3565b610338565b61018a61039c565b6001544710156101cf576040517f08c379a00000000000000000000000000000000000000000000000000000000081526004016101c690610546565b60405180910390fd5b73ffffffffffffffffffffffffffffffffffffffff811660009081526002602052604090205460ff161561022f576040517f08c379a00000000000000000000000000000000000000000000000000000000081526004016101c69061058a565b60008173ffffffffffffffffffffffffffffffffffffffff166001546040516102579061059a565b60006040518083038185875af1925050503d8060008114610294576040519150601f19603f3d011682016040523d82523d6000602084013e610299565b606091505b50509050806102d4576040517f08c379a00000000000000000000000000000000000000000000000000000000081526004016101c6906105d6565b5073ffffffffffffffffffffffffffffffffffffffff16600090815260026020526040902080547fffffffffffffffffffffffffffffffffffffffffffffffffffffffffffffff00166001179055565b61032c61039c565b61033660006103ef565b565b61034061039c565b73ffffffffffffffffffffffffffffffffffffffff81166103905760006040517f1e4fbdf70000000000000000000000000000000000000000000000000000000081526004016101c69190610501565b610399816103ef565b50565b60005473ffffffffffffffffffffffffffffffffffffffff16331461033657336040517f118cdaa70000000000000000000000000000000000000000000000000000000081526004016101c69190610501565b6000805473ffffffffffffffffffffffffffffffffffffffff8381167fffffffffffffffffffffffff0000000000000000000000000000000000000000831681178455604051919092169283917f8be0079c531659141344cd1fd0a4f28419497f9722a3daafe3b4186f6b6457e09190a35050565b600073ffffffffffffffffffffffffffffffffffffffff82165b92915050565b61048d81610464565b811461039957600080fd5b803561047e81610484565b6000602082840312156104b8576104b8600080fd5b60006104c48484610498565b949350505050565b8015155b82525050565b6020810161047e82846104cc565b806104d0565b6020810161047e82846104e4565b6104d081610464565b6020810161047e82846104f8565b601e81526000602082017f496e73756666696369656e742062616c616e636520696e206661756365740000815291505b5060200190565b6020808252810161047e8161050f565b600e81526000602082017f4f6e652074696d6520436c61696d0000000000000000000000000000000000008152915061053f565b6020808252810161047e81610556565b60008161047e565b601481526000602082017f5472616e73666572206469646e277420776f726b0000000000000000000000008152915061053f565b6020808252810161047e816105a256fea2646970667358221220980265f42a0821fe0f3bbc9bf6ade7db5744a4b3351d9a9118b0759d1a7735e264736f6c63430008140033",
  "linkReferences": {},
  "deployedLinkReferences": {}
}